{
  "contractName": "SupplyChain",
  "abi": [
    {
      "inputs": [],
      "stateMutability": "payable",
      "type": "constructor"
    },
    {
      "anonymous": false,
      "inputs": [
        {
          "indexed": false,
          "internalType": "uint256",
          "name": "id",
          "type": "uint256"
        },
        {
          "indexed": false,
          "internalType": "string",
          "name": "name",
          "type": "string"
        }
      ],
      "name": "MedicineAdded",
      "type": "event"
    },
    {
      "anonymous": false,
      "inputs": [
        {
          "indexed": false,
          "internalType": "uint256",
          "name": "id",
          "type": "uint256"
        },
        {
          "indexed": false,
          "internalType": "enum SupplyChain.Stage",
          "name": "stage",
          "type": "uint8"
        }
      ],
      "name": "MedicineStageUpdated",
      "type": "event"
    },
    {
      "anonymous": false,
      "inputs": [
        {
          "indexed": false,
          "internalType": "string",
          "name": "role",
          "type": "string"
        },
        {
          "indexed": false,
          "internalType": "uint256",
          "name": "id",
          "type": "uint256"
        },
        {
          "indexed": false,
          "internalType": "string",
          "name": "name",
          "type": "string"
        }
      ],
      "name": "ParticipantAdded",
      "type": "event"
    },
    {
      "inputs": [],
      "name": "disCtr",
      "outputs": [
        {
          "internalType": "uint256",
          "name": "",
          "type": "uint256"
        }
      ],
      "stateMutability": "view",
      "type": "function"
    },
    {
      "inputs": [
        {
          "internalType": "uint256",
          "name": "",
          "type": "uint256"
        }
      ],
      "name": "distributors",
      "outputs": [
        {
          "internalType": "address",
          "name": "addr",
          "type": "address"
        },
        {
          "internalType": "uint256",
          "name": "id",
          "type": "uint256"
        },
        {
          "internalType": "string",
          "name": "name",
          "type": "string"
        },
        {
          "internalType": "string",
          "name": "place",
          "type": "string"
        }
      ],
      "stateMutability": "view",
      "type": "function"
    },
    {
      "inputs": [],
      "name": "manCtr",
      "outputs": [
        {
          "internalType": "uint256",
          "name": "",
          "type": "uint256"
        }
      ],
      "stateMutability": "view",
      "type": "function"
    },
    {
      "inputs": [
        {
          "internalType": "uint256",
          "name": "",
          "type": "uint256"
        }
      ],
      "name": "manufacturers",
      "outputs": [
        {
          "internalType": "address",
          "name": "addr",
          "type": "address"
        },
        {
          "internalType": "uint256",
          "name": "id",
          "type": "uint256"
        },
        {
          "internalType": "string",
          "name": "name",
          "type": "string"
        },
        {
          "internalType": "string",
          "name": "place",
          "type": "string"
        }
      ],
      "stateMutability": "view",
      "type": "function"
    },
    {
      "inputs": [],
      "name": "medicineCtr",
      "outputs": [
        {
          "internalType": "uint256",
          "name": "",
          "type": "uint256"
        }
      ],
      "stateMutability": "view",
      "type": "function"
    },
    {
      "inputs": [
        {
          "internalType": "uint256",
          "name": "",
          "type": "uint256"
        }
      ],
      "name": "medicineStock",
      "outputs": [
        {
          "internalType": "uint256",
          "name": "id",
          "type": "uint256"
        },
        {
          "internalType": "string",
          "name": "name",
          "type": "string"
        },
        {
          "internalType": "string",
          "name": "description",
          "type": "string"
        },
        {
          "internalType": "uint256",
          "name": "RMSid",
          "type": "uint256"
        },
        {
          "internalType": "uint256",
          "name": "MANid",
          "type": "uint256"
        },
        {
          "internalType": "uint256",
          "name": "DISid",
          "type": "uint256"
        },
        {
          "internalType": "uint256",
          "name": "RETid",
          "type": "uint256"
        },
        {
          "internalType": "enum SupplyChain.Stage",
          "name": "stage",
          "type": "uint8"
        }
      ],
      "stateMutability": "view",
      "type": "function"
    },
    {
      "inputs": [],
      "name": "owner",
      "outputs": [
        {
          "internalType": "address",
          "name": "",
          "type": "address"
        }
      ],
      "stateMutability": "view",
      "type": "function"
    },
    {
      "inputs": [
        {
          "internalType": "uint256",
          "name": "",
          "type": "uint256"
        }
      ],
      "name": "rawMaterialSuppliers",
      "outputs": [
        {
          "internalType": "address",
          "name": "addr",
          "type": "address"
        },
        {
          "internalType": "uint256",
          "name": "id",
          "type": "uint256"
        },
        {
          "internalType": "string",
          "name": "name",
          "type": "string"
        },
        {
          "internalType": "string",
          "name": "place",
          "type": "string"
        }
      ],
      "stateMutability": "view",
      "type": "function"
    },
    {
      "inputs": [],
      "name": "retCtr",
      "outputs": [
        {
          "internalType": "uint256",
          "name": "",
          "type": "uint256"
        }
      ],
      "stateMutability": "view",
      "type": "function"
    },
    {
      "inputs": [
        {
          "internalType": "uint256",
          "name": "",
          "type": "uint256"
        }
      ],
      "name": "retailers",
      "outputs": [
        {
          "internalType": "address",
          "name": "addr",
          "type": "address"
        },
        {
          "internalType": "uint256",
          "name": "id",
          "type": "uint256"
        },
        {
          "internalType": "string",
          "name": "name",
          "type": "string"
        },
        {
          "internalType": "string",
          "name": "place",
          "type": "string"
        }
      ],
      "stateMutability": "view",
      "type": "function"
    },
    {
      "inputs": [],
      "name": "rmsCtr",
      "outputs": [
        {
          "internalType": "uint256",
          "name": "",
          "type": "uint256"
        }
      ],
      "stateMutability": "view",
      "type": "function"
    },
    {
      "inputs": [
        {
          "internalType": "uint256",
          "name": "_medicineID",
          "type": "uint256"
        }
      ],
      "name": "showStage",
      "outputs": [
        {
          "internalType": "string",
          "name": "",
          "type": "string"
        }
      ],
      "stateMutability": "view",
      "type": "function"
    },
    {
      "inputs": [
        {
          "internalType": "address",
          "name": "_address",
          "type": "address"
        },
        {
          "internalType": "string",
          "name": "_name",
          "type": "string"
        },
        {
          "internalType": "string",
          "name": "_place",
          "type": "string"
        }
      ],
      "name": "addRMS",
      "outputs": [],
      "stateMutability": "nonpayable",
      "type": "function"
    },
    {
      "inputs": [
        {
          "internalType": "address",
          "name": "_address",
          "type": "address"
        },
        {
          "internalType": "string",
          "name": "_name",
          "type": "string"
        },
        {
          "internalType": "string",
          "name": "_place",
          "type": "string"
        }
      ],
      "name": "addManufacturer",
      "outputs": [],
      "stateMutability": "nonpayable",
      "type": "function"
    },
    {
      "inputs": [
        {
          "internalType": "address",
          "name": "_address",
          "type": "address"
        },
        {
          "internalType": "string",
          "name": "_name",
          "type": "string"
        },
        {
          "internalType": "string",
          "name": "_place",
          "type": "string"
        }
      ],
      "name": "addDistributor",
      "outputs": [],
      "stateMutability": "nonpayable",
      "type": "function"
    },
    {
      "inputs": [
        {
          "internalType": "address",
          "name": "_address",
          "type": "address"
        },
        {
          "internalType": "string",
          "name": "_name",
          "type": "string"
        },
        {
          "internalType": "string",
          "name": "_place",
          "type": "string"
        }
      ],
      "name": "addRetailer",
      "outputs": [],
      "stateMutability": "nonpayable",
      "type": "function"
    },
    {
      "inputs": [
        {
          "internalType": "uint256",
          "name": "_medicineID",
          "type": "uint256"
        }
      ],
      "name": "RMSsupply",
      "outputs": [],
      "stateMutability": "nonpayable",
      "type": "function"
    },
    {
      "inputs": [
        {
          "internalType": "uint256",
          "name": "_medicineID",
          "type": "uint256"
        }
      ],
      "name": "Manufacturing",
      "outputs": [],
      "stateMutability": "nonpayable",
      "type": "function"
    },
    {
      "inputs": [
        {
          "internalType": "uint256",
          "name": "_medicineID",
          "type": "uint256"
        }
      ],
      "name": "Distribute",
      "outputs": [],
      "stateMutability": "nonpayable",
      "type": "function"
    },
    {
      "inputs": [
        {
          "internalType": "uint256",
          "name": "_medicineID",
          "type": "uint256"
        }
      ],
      "name": "Retail",
      "outputs": [],
      "stateMutability": "nonpayable",
      "type": "function"
    },
    {
      "inputs": [
        {
          "internalType": "uint256",
          "name": "_medicineID",
          "type": "uint256"
        }
      ],
      "name": "sold",
      "outputs": [],
      "stateMutability": "nonpayable",
      "type": "function"
    },
    {
      "inputs": [
        {
          "internalType": "string",
          "name": "_name",
          "type": "string"
        },
        {
          "internalType": "string",
          "name": "_description",
          "type": "string"
        }
      ],
      "name": "addMedicine",
      "outputs": [],
      "stateMutability": "nonpayable",
      "type": "function"
    }
  ],
  "bytecode": "0x60a060405233608052608051611d126100466000396000818161024a01528181610334015281816103b1015281816105b401528181610623015261071d0152611d126000f3fe608060405234801561001057600080fd5b50600436106101425760003560e01c806389639eb7116100b85780639c03facb1161007c5780639c03facb146102aa578063a48d335a146102bd578063a95f29d9146102d0578063adff8cea146102d9578063dd28639814610300578063e101a2e01461030957600080fd5b806389639eb71461021f578063897ec7df146102325780638da5cb5b146102455780638f4183cc1461028457806390175af11461029757600080fd5b80634def474a1161010a5780634def474a146101a757806350b492ba146101ba5780636a992c9f146101dd5780637e43d94d146101f0578063857ddb04146101f957806386c182751461020c57600080fd5b80632a4af440146101475780632b70b08d1461015c5780632bdb2e6b1461016f5780633d753a1c1461018b578063438e9c4d1461019e575b600080fd5b61015a61015536600461184b565b610329565b005b61015a61016a36600461184b565b6103a6565b61017860035481565b6040519081526020015b60405180910390f35b61015a6101993660046118d2565b610415565b61017860025481565b61015a6101b53660046118d2565b61043f565b6101cd6101c83660046118d2565b610466565b6040516101829493929190611931565b61015a6101eb36600461184b565b6105a9565b61017860045481565b61015a61020736600461184b565b610618565b61015a61021a3660046118d2565b610687565b6101cd61022d3660046118d2565b6106ae565b6101cd6102403660046118d2565b6106e0565b61026c7f000000000000000000000000000000000000000000000000000000000000000081565b6040516001600160a01b039091168152602001610182565b61015a610292366004611975565b610712565b6101cd6102a53660046118d2565b610931565b61015a6102b83660046118d2565b610963565b61015a6102cb3660046118d2565b610b41565b61017860005481565b6102ec6102e73660046118d2565b610b68565b604051610182989796959493929190611a16565b61017860015481565b61031c6103173660046118d2565b610cbd565b6040516101829190611a78565b336001600160a01b037f0000000000000000000000000000000000000000000000000000000000000000161461037a5760405162461bcd60e51b815260040161037190611a92565b60405180910390fd5b6103a16040518060400160405280600381526020016244495360e81b815250848484610f37565b505050565b336001600160a01b037f000000000000000000000000000000000000000000000000000000000000000016146103ee5760405162461bcd60e51b815260040161037190611a92565b6103a160405180604001604052806003815260200162524d5360e81b815250848484610f37565b61043c8160046040518060400160405280600381526020016214915560ea1b8152506112b6565b50565b61043c8160036040518060400160405280600381526020016244495360e81b8152506112b6565b6008602052600090815260409020805460018201546002830180546001600160a01b0390931693919261049890611ad7565b80601f01602080910402602001604051908101604052809291908181526020018280546104c490611ad7565b80156105115780601f106104e657610100808354040283529160200191610511565b820191906000526020600020905b8154815290600101906020018083116104f457829003601f168201915b50505050509080600301805461052690611ad7565b80601f016020809104026020016040519081016040528092919081815260200182805461055290611ad7565b801561059f5780601f106105745761010080835404028352916020019161059f565b820191906000526020600020905b81548152906001019060200180831161058257829003601f168201915b5050505050905084565b336001600160a01b037f000000000000000000000000000000000000000000000000000000000000000016146105f15760405162461bcd60e51b815260040161037190611a92565b6103a16040518060400160405280600381526020016226a0a760e91b815250848484610f37565b336001600160a01b037f000000000000000000000000000000000000000000000000000000000000000016146106605760405162461bcd60e51b815260040161037190611a92565b6103a16040518060400160405280600381526020016214915560ea1b815250848484610f37565b61043c81600160405180604001604052806003815260200162524d5360e81b8152506112b6565b6006602052600090815260409020805460018201546002830180546001600160a01b0390931693919261049890611ad7565b6009602052600090815260409020805460018201546002830180546001600160a01b0390931693919261049890611ad7565b336001600160a01b037f0000000000000000000000000000000000000000000000000000000000000000161461075a5760405162461bcd60e51b815260040161037190611a92565b600060015411801561076e57506000600254115b801561077c57506000600354115b801561078a57506000600454115b6107f45760405162461bcd60e51b815260206004820152603560248201527f416c6c207061727469636970616e7473206d757374206265206164646564206260448201527465666f726520616464696e67206d65646963696e6560581b6064820152608401610371565b60008054908061080383611b11565b919050555060405180610100016040528060005481526020018381526020018281526020016000815260200160008152602001600081526020016000815260200160006005811115610857576108576119de565b9052600080548152600560209081526040909120825181559082015160018201906108829082611b86565b50604082015160028201906108979082611b86565b50606082015181600301556080820151816004015560a0820151816005015560c0820151816006015560e08201518160070160006101000a81548160ff021916908360058111156108ea576108ea6119de565b02179055509050507f391a5327e58df0236e727eae6e91d54d5aae7a950c4e6616893611e349f6c64e60005483604051610925929190611c45565b60405180910390a15050565b6007602052600090815260409020805460018201546002830180546001600160a01b0390931693919261049890611ad7565b60008111801561097557506000548111155b6109915760405162461bcd60e51b815260040161037190611c66565b60006109b8336040518060400160405280600381526020016214915560ea1b815250611503565b9050600081116109ff5760405162461bcd60e51b815260206004820152601260248201527114995d185a5b195c881b9bdd08199bdd5b9960721b6044820152606401610371565b6000828152600560205260409020600601548114610a7b5760405162461bcd60e51b815260206004820152603360248201527f4f6e6c792074686520636f72726563742072657461696c65722063616e206d616044820152721c9ac81b59591a58da5b9948185cc81cdbdb19606a1b6064820152608401610371565b600460008381526005602081905260409091206007015460ff1690811115610aa557610aa56119de565b14610af25760405162461bcd60e51b815260206004820152601f60248201527f4d65646963696e65206973206e6f7420696e2052657461696c207374616765006044820152606401610371565b600082815260056020819052604091829020600701805460ff19168217905590517f01689b180f81c4e9d8925da92a012114998acc4fdf0267f01c37d5cecf7076519161092591859190611c93565b61043c8160026040518060400160405280600381526020016226a0a760e91b8152506112b6565b60056020526000908152604090208054600182018054919291610b8a90611ad7565b80601f0160208091040260200160405190810160405280929190818152602001828054610bb690611ad7565b8015610c035780601f10610bd857610100808354040283529160200191610c03565b820191906000526020600020905b815481529060010190602001808311610be657829003601f168201915b505050505090806002018054610c1890611ad7565b80601f0160208091040260200160405190810160405280929190818152602001828054610c4490611ad7565b8015610c915780601f10610c6657610100808354040283529160200191610c91565b820191906000526020600020905b815481529060010190602001808311610c7457829003601f168201915b505050600384015460048501546005860154600687015460079097015495969295919450925060ff1688565b60606000805411610d085760405162461bcd60e51b81526020600482015260156024820152744e6f206d65646963696e657320696e2073746f636b60581b6044820152606401610371565b600082118015610d1a57506000548211155b610d365760405162461bcd60e51b815260040161037190611c66565b60008281526005602052604081206007015460ff1690816005811115610d5e57610d5e6119de565b03610d9157505060408051808201909152601081526f1359591a58da5b994813dc99195c995960821b6020820152919050565b6001816005811115610da557610da56119de565b03610de557505060408051808201909152601981527f526177204d6174657269616c20537570706c79205374616765000000000000006020820152919050565b6002816005811115610df957610df96119de565b03610e2f5750506040805180820190915260138152724d616e75666163747572696e6720537461676560681b6020820152919050565b6003816005811115610e4357610e436119de565b03610e78575050604080518082019091526012815271446973747269627574696f6e20537461676560701b6020820152919050565b6004816005811115610e8c57610e8c6119de565b03610ebb57505060408051808201909152600c81526b52657461696c20537461676560a01b6020820152919050565b6005816005811115610ecf57610ecf6119de565b03610eff57505060408051808201909152600d81526c1359591a58da5b994814dbdb19609a1b6020820152919050565b60405162461bcd60e51b815260206004820152600d60248201526c496e76616c696420737461676560981b6044820152606401610371565b604080516080810182526001600160a01b0385168152600060208083018290528284018690526060830185905283518085019094526003845262524d5360e81b938101939093528651928701929092207f8715619c2f242715d124068e493b455a3eb434791ae0123a617bbb8c4d77c0d50161103257600160008154610fbc90611b11565b9182905550602082810182815260008381526006909252604091829020845181546001600160a01b0319166001600160a01b039091161781559051600182015590830151919350829160028201906110149082611b86565b50606082015160038201906110299082611b86565b50905050611273565b60408051808201909152600381526226a0a760e91b6020918201528651908701207f3f833b1f3c170d0886f0cef906f124071f102da344b643dca3b8adc39c16aea8016110e05760026000815461108890611b11565b9182905550602082810182815260008381526007909252604091829020845181546001600160a01b0319166001600160a01b039091161781559051600182015590830151919350829160028201906110149082611b86565b60408051808201909152600381526244495360e81b6020918201528651908701207fe11c6f59396e88ac005644f427c33cec16ca4ec1c2554598fc7350f1b806d70f0161118e5760036000815461113690611b11565b9182905550602082810182815260008381526008909252604091829020845181546001600160a01b0319166001600160a01b039091161781559051600182015590830151919350829160028201906110149082611b86565b60408051808201909152600381526214915560ea1b6020918201528651908701207f4902c437d0c39d674ffd1db2288b7980b977162a1db11536a5499661eb2317fd0161123c576004600081546111e490611b11565b9182905550602082810182815260008381526009909252604091829020845181546001600160a01b0319166001600160a01b039091161781559051600182015590830151919350829160028201906110149082611b86565b60405162461bcd60e51b815260206004820152600c60248201526b496e76616c696420726f6c6560a01b6044820152606401610371565b7f83fbd834358bfc114783ab678a0eda192974ad29a9d293dc29abaa741daac9c78683866040516112a693929190611ca7565b60405180910390a1505050505050565b6000831180156112c857506000548311155b6112e45760405162461bcd60e51b815260040161037190611c66565b60008381526005602081905260409091206007015460ff169081111561130c5761130c6119de565b60ff16826005811115611321576113216119de565b60ff16116113715760405162461bcd60e51b815260206004820152601860248201527f496e76616c6964207374616765207472616e736974696f6e00000000000000006044820152606401610371565b600061137d3383611503565b9050600081116113c75760405162461bcd60e51b815260206004820152601560248201527414185c9d1a58da5c185b9d081b9bdd08199bdd5b99605a1b6044820152606401610371565b60018360058111156113db576113db6119de565b036113f957600084815260056020526040902060030181905561148c565b600283600581111561140d5761140d6119de565b0361142b57600084815260056020526040902060040181905561148c565b600383600581111561143f5761143f6119de565b0361145e5760008481526005602081905260409091200181905561148c565b6004836005811115611472576114726119de565b0361148c5760008481526005602052604090206006018190555b60008481526005602081905260409091206007018054859260ff199091169060019084908111156114bf576114bf6119de565b02179055507f01689b180f81c4e9d8925da92a012114998acc4fdf0267f01c37d5cecf70765184846040516114f5929190611c93565b60405180910390a150505050565b604080518082019091526003815262524d5360e81b60209182015281519082012060009081907f8715619c2f242715d124068e493b455a3eb434791ae0123a617bbb8c4d77c0d5016115b1575060018054905b8181116115ab576000818152600660205260409020546001600160a01b038087169116036115995760009081526006602052604090206001015491506117a09050565b806115a381611b11565b915050611556565b5061179a565b60408051808201909152600381526226a0a760e91b6020918201528351908401207f3f833b1f3c170d0886f0cef906f124071f102da344b643dca3b8adc39c16aea801611654575060025460015b8181116115ab576000818152600760205260409020546001600160a01b038087169116036116425760009081526007602052604090206001015491506117a09050565b8061164c81611b11565b9150506115ff565b60408051808201909152600381526244495360e81b6020918201528351908401207fe11c6f59396e88ac005644f427c33cec16ca4ec1c2554598fc7350f1b806d70f016116f7575060035460015b8181116115ab576000818152600860205260409020546001600160a01b038087169116036116e55760009081526008602052604090206001015491506117a09050565b806116ef81611b11565b9150506116a2565b60408051808201909152600381526214915560ea1b6020918201528351908401207f4902c437d0c39d674ffd1db2288b7980b977162a1db11536a5499661eb2317fd0161123c575060045460015b8181116115ab576000818152600960205260409020546001600160a01b038087169116036117885760009081526009602052604090206001015491506117a09050565b8061179281611b11565b915050611745565b60009150505b92915050565b634e487b7160e01b600052604160045260246000fd5b600082601f8301126117cd57600080fd5b813567ffffffffffffffff8111156117e7576117e76117a6565b604051601f8201601f19908116603f0116810167ffffffffffffffff81118282101715611816576118166117a6565b60405281815283820160200185101561182e57600080fd5b816020850160208301376000918101602001919091529392505050565b60008060006060848603121561186057600080fd5b83356001600160a01b038116811461187757600080fd5b9250602084013567ffffffffffffffff81111561189357600080fd5b61189f868287016117bc565b925050604084013567ffffffffffffffff8111156118bc57600080fd5b6118c8868287016117bc565b9150509250925092565b6000602082840312156118e457600080fd5b5035919050565b6000815180845260005b81811015611911576020818501810151868301820152016118f5565b506000602082860101526020601f19601f83011685010191505092915050565b60018060a01b038516815283602082015260806040820152600061195860808301856118eb565b828103606084015261196a81856118eb565b979650505050505050565b6000806040838503121561198857600080fd5b823567ffffffffffffffff81111561199f57600080fd5b6119ab858286016117bc565b925050602083013567ffffffffffffffff8111156119c857600080fd5b6119d4858286016117bc565b9150509250929050565b634e487b7160e01b600052602160045260246000fd5b60068110611a1257634e487b7160e01b600052602160045260246000fd5b9052565b88815261010060208201526000611a3161010083018a6118eb565b8281036040840152611a43818a6118eb565b9150508660608301528560808301528460a08301528360c0830152611a6b60e08301846119f4565b9998505050505050505050565b602081526000611a8b60208301846118eb565b9392505050565b60208082526025908201527f4f6e6c7920746865206f776e65722063616e2063616c6c20746869732066756e60408201526431ba34b7b760d91b606082015260800190565b600181811c90821680611aeb57607f821691505b602082108103611b0b57634e487b7160e01b600052602260045260246000fd5b50919050565b600060018201611b3157634e487b7160e01b600052601160045260246000fd5b5060010190565b601f8211156103a157806000526020600020601f840160051c81016020851015611b5f5750805b601f840160051c820191505b81811015611b7f5760008155600101611b6b565b5050505050565b815167ffffffffffffffff811115611ba057611ba06117a6565b611bb481611bae8454611ad7565b84611b38565b6020601f821160018114611be85760008315611bd05750848201515b600019600385901b1c1916600184901b178455611b7f565b600084815260208120601f198516915b82811015611c185787850151825560209485019460019092019101611bf8565b5084821015611c365786840151600019600387901b60f8161c191681555b50505050600190811b01905550565b828152604060208201526000611c5e60408301846118eb565b949350505050565b602080825260139082015272125b9d985b1a59081b59591a58da5b99481251606a1b604082015260600190565b82815260408101611a8b60208301846119f4565b606081526000611cba60608301866118eb565b8460208401528281036040840152611cd281856118eb565b969550505050505056fea26469706673582212201f9f14cb629e8033fbe17a571bfa2c3bf275d3a2bd24fe13baa06de76cfc5e5564736f6c634300081b0033",
  "immutableReferences": {
    "36": [
      {
        "length": 32,
        "start": 586
      },
      {
        "length": 32,
        "start": 820
      },
      {
        "length": 32,
        "start": 945
      },
      {
        "length": 32,
        "start": 1460
      },
      {
        "length": 32,
        "start": 1571
      },
      {
        "length": 32,
        "start": 1821
      }
    ]
  },
  "source": "// SPDX-License-Identifier: MIT\r\npragma solidity ^0.8.0;\r\n\r\ncontract SupplyChain {\r\n    address public immutable owner;\r\n\r\n    constructor() payable {\r\n        owner = msg.sender;\r\n    }\r\n\r\n    modifier onlyOwner() {\r\n        require(msg.sender == owner, \"Only the owner can call this function\");\r\n        _;\r\n    }\r\n\r\n    enum Stage {\r\n        Init,\r\n        RawMaterialSupply,\r\n        Manufacture,\r\n        Distribution,\r\n        Retail,\r\n        Sold\r\n    }\r\n\r\n    uint256 public medicineCtr;\r\n    uint256 public rmsCtr;\r\n    uint256 public manCtr;\r\n    uint256 public disCtr;\r\n    uint256 public retCtr;\r\n\r\n    struct Medicine {\r\n        uint256 id;\r\n        string name;\r\n        string description;\r\n        uint256 RMSid;\r\n        uint256 MANid;\r\n        uint256 DISid;\r\n        uint256 RETid;\r\n        Stage stage;\r\n    }\r\n\r\n    mapping(uint256 => Medicine) public medicineStock;\r\n\r\n    struct Participant {\r\n        address addr;\r\n        uint256 id;\r\n        string name;\r\n        string place;\r\n    }\r\n\r\n    mapping(uint256 => Participant) public rawMaterialSuppliers;\r\n    mapping(uint256 => Participant) public manufacturers;\r\n    mapping(uint256 => Participant) public distributors;\r\n    mapping(uint256 => Participant) public retailers;\r\n\r\n    event ParticipantAdded(string role, uint256 id, string name);\r\n    event MedicineAdded(uint256 id, string name);\r\n    event MedicineStageUpdated(uint256 id, Stage stage);\r\n\r\n    function showStage(uint256 _medicineID) public view returns (string memory) {\r\n        require(medicineCtr > 0, \"No medicines in stock\");\r\n        require(_medicineID > 0 && _medicineID <= medicineCtr, \"Invalid medicine ID\");\r\n\r\n        Stage stage = medicineStock[_medicineID].stage;\r\n\r\n        if (stage == Stage.Init) return \"Medicine Ordered\";\r\n        if (stage == Stage.RawMaterialSupply) return \"Raw Material Supply Stage\";\r\n        if (stage == Stage.Manufacture) return \"Manufacturing Stage\";\r\n        if (stage == Stage.Distribution) return \"Distribution Stage\";\r\n        if (stage == Stage.Retail) return \"Retail Stage\";\r\n        if (stage == Stage.Sold) return \"Medicine Sold\";\r\n\r\n        revert(\"Invalid stage\");\r\n    }\r\n\r\n    function addParticipant(\r\n        string memory role,\r\n        address _address,\r\n        string memory _name,\r\n        string memory _place\r\n    ) private {\r\n        uint256 id;\r\n        Participant memory newParticipant = Participant(_address, 0, _name, _place);\r\n\r\n        if (keccak256(bytes(role)) == keccak256(bytes(\"RMS\"))) {\r\n            id = ++rmsCtr;\r\n            newParticipant.id = id;\r\n            rawMaterialSuppliers[id] = newParticipant;\r\n        } else if (keccak256(bytes(role)) == keccak256(bytes(\"MAN\"))) {\r\n            id = ++manCtr;\r\n            newParticipant.id = id;\r\n            manufacturers[id] = newParticipant;\r\n        } else if (keccak256(bytes(role)) == keccak256(bytes(\"DIS\"))) {\r\n            id = ++disCtr;\r\n            newParticipant.id = id;\r\n            distributors[id] = newParticipant;\r\n        } else if (keccak256(bytes(role)) == keccak256(bytes(\"RET\"))) {\r\n            id = ++retCtr;\r\n            newParticipant.id = id;\r\n            retailers[id] = newParticipant;\r\n        } else {\r\n            revert(\"Invalid role\");\r\n        }\r\n\r\n        emit ParticipantAdded(role, id, _name);\r\n    }\r\n\r\n    function addRMS(address _address, string memory _name, string memory _place) public onlyOwner {\r\n        addParticipant(\"RMS\", _address, _name, _place);\r\n    }\r\n\r\n    function addManufacturer(address _address, string memory _name, string memory _place) public onlyOwner {\r\n        addParticipant(\"MAN\", _address, _name, _place);\r\n    }\r\n\r\n    function addDistributor(address _address, string memory _name, string memory _place) public onlyOwner {\r\n        addParticipant(\"DIS\", _address, _name, _place);\r\n    }\r\n\r\n    function addRetailer(address _address, string memory _name, string memory _place) public onlyOwner {\r\n        addParticipant(\"RET\", _address, _name, _place);\r\n    }\r\n\r\n    function updateMedicineStage(uint256 _medicineID, Stage _newStage, string memory role) private {\r\n        require(_medicineID > 0 && _medicineID <= medicineCtr, \"Invalid medicine ID\");\r\n        require(uint8(_newStage) > uint8(medicineStock[_medicineID].stage), \"Invalid stage transition\");\r\n\r\n        uint256 participantId = findParticipant(msg.sender, role);\r\n        require(participantId > 0, \"Participant not found\");\r\n\r\n        if (_newStage == Stage.RawMaterialSupply) {\r\n            medicineStock[_medicineID].RMSid = participantId;\r\n        } else if (_newStage == Stage.Manufacture) {\r\n            medicineStock[_medicineID].MANid = participantId;\r\n        } else if (_newStage == Stage.Distribution) {\r\n            medicineStock[_medicineID].DISid = participantId;\r\n        } else if (_newStage == Stage.Retail) {\r\n            medicineStock[_medicineID].RETid = participantId;\r\n        }\r\n\r\n        medicineStock[_medicineID].stage = _newStage;\r\n        emit MedicineStageUpdated(_medicineID, _newStage);\r\n    }\r\n\r\n    function RMSsupply(uint256 _medicineID) public {\r\n        updateMedicineStage(_medicineID, Stage.RawMaterialSupply, \"RMS\");\r\n    }\r\n\r\n    function Manufacturing(uint256 _medicineID) public {\r\n        updateMedicineStage(_medicineID, Stage.Manufacture, \"MAN\");\r\n    }\r\n\r\n    function Distribute(uint256 _medicineID) public {\r\n        updateMedicineStage(_medicineID, Stage.Distribution, \"DIS\");\r\n    }\r\n\r\n    function Retail(uint256 _medicineID) public {\r\n        updateMedicineStage(_medicineID, Stage.Retail, \"RET\");\r\n    }\r\n\r\n    function sold(uint256 _medicineID) public {\r\n        require(_medicineID > 0 && _medicineID <= medicineCtr, \"Invalid medicine ID\");\r\n        uint256 _id = findParticipant(msg.sender, \"RET\");\r\n        require(_id > 0, \"Retailer not found\");\r\n        require(_id == medicineStock[_medicineID].RETid, \"Only the correct retailer can mark medicine as sold\");\r\n        require(medicineStock[_medicineID].stage == Stage.Retail, \"Medicine is not in Retail stage\");\r\n\r\n        medicineStock[_medicineID].stage = Stage.Sold;\r\n        emit MedicineStageUpdated(_medicineID, Stage.Sold);\r\n    }\r\n\r\n    function addMedicine(string memory _name, string memory _description) public onlyOwner {\r\n        require(rmsCtr > 0 && manCtr > 0 && disCtr > 0 && retCtr > 0, \"All participants must be added before adding medicine\");\r\n        medicineCtr++;\r\n        medicineStock[medicineCtr] = Medicine(\r\n            medicineCtr,\r\n            _name,\r\n            _description,\r\n            0,\r\n            0,\r\n            0,\r\n            0,\r\n            Stage.Init\r\n        );\r\n        emit MedicineAdded(medicineCtr, _name);\r\n    }\r\n\r\n    function findParticipant(address _address, string memory role) private view returns (uint256) {\r\n        uint256 counter;\r\n        if (keccak256(bytes(role)) == keccak256(bytes(\"RMS\"))) {\r\n            counter = rmsCtr;\r\n            for (uint256 i = 1; i <= counter; i++) {\r\n                if (rawMaterialSuppliers[i].addr == _address) return rawMaterialSuppliers[i].id;\r\n            }\r\n        } else if (keccak256(bytes(role)) == keccak256(bytes(\"MAN\"))) {\r\n            counter = manCtr;\r\n            for (uint256 i = 1; i <= counter; i++) {\r\n                if (manufacturers[i].addr == _address) return manufacturers[i].id;\r\n            }\r\n        } else if (keccak256(bytes(role)) == keccak256(bytes(\"DIS\"))) {\r\n            counter = disCtr;\r\n            for (uint256 i = 1; i <= counter; i++) {\r\n                if (distributors[i].addr == _address) return distributors[i].id;\r\n            }\r\n        } else if (keccak256(bytes(role)) == keccak256(bytes(\"RET\"))) {\r\n            counter = retCtr;\r\n            for (uint256 i = 1; i <= counter; i++) {\r\n                if (retailers[i].addr == _address) return retailers[i].id;\r\n            }\r\n        } else {\r\n            revert(\"Invalid role\");\r\n        }\r\n        return 0;\r\n    }\r\n}",
  "sourcePath": "C:\\Users\\arune\\Sem_1\\BlockChain\\supplychainBlockhcain\\Block_Chain_Managment_System\\contracts\\SupplyChain.sol",
  "compiler": {
    "name": "solc",
    "version": "0.8.27+commit.40a35a09.Emscripten.clang"
  },
  "schemaVersion": "3.4.16",
  "updatedAt": "2024-10-13T15:29:38.578Z",
  "devdoc": {
    "kind": "dev",
    "methods": {},
    "version": 1
  },
  "userdoc": {
    "kind": "user",
    "methods": {},
    "version": 1
  }
}